03300000        2029974763000115379580130007188     008351635           ALDEIA ESCOLA EXPERIMENTAL LTDBANCO SANTANDER (BRASIL) S/A            202012020      000797040                                                                          
03300691T01  040 2029974763000115008351635           379580130007188     ALDEIA ESCOLA EXPERIMENTAL LTD                                                                                0000079702012020                                         
0330069300001T 06379580130007188        0000031697470200000000007368820122019000000000032452341383000000000000000000000000000001000012431350770KAIO SANTOS DE LIMA                     01300071880000000000001700400000000                      
0330069300002U 060000000000007920000000000000000000000000000000000000000000000000000000332440000000000332440000000000000000000000000000000201202003012020000000000000000000000000000                              000                           
0330069300003T 06379580130007188        0000000738417200000000007384120122019000000000039980104022100000000000000000000000000001000007998508701LUCIANA CARVALHO DE SOUZA               01300071880000000000001700400000000                      
0330069300004U 060000000000009690000000000000000000000000000000000000000000000000000000409490000000000409490000000000000000000000000000000201202003012020000000000000000000000000000                              000                           
0330069300005T 06379580130007188        0000000746789200000000007467802012020000000000013326033080100000000000000000000000000001000009940063733FLAVIA DE PAIVA GUIMARAES ALVARENGA     01300071880000000000001700300000000                      
0330069300006U 060000000000000000000000000000000000000000000000000000000000000000000000133260000000000133260000000000000000000000000000000201202003012020000000000000000000000000000                              000                           
0330069300007T 06379580130007188        0000000757411200000000007574102012020000000000042984104023200000000000000000000000000001000008511415793MARLOS DA COSTA MONCORES                01300071880000000000001700400000000                      
0330069300008U 060000000000000000000000000000000000000000000000000000000000000000000000429840000000000429840000000000000000000000000000000201202003012020000000000000000000000000000                              000                           
0330069300009T 06379580130007188        0000000757802200000000007578010012020000000000034943237179100000000000000000000000000001000009230922773ROBERTA XAVIER FERREIRA                 01300071880000000000001700400000000                      
0330069300010U 060000000000000000000000000000000000000000000000000000000000000000000000349430000000000349430000000000000000000000000000000201202003012020000000000000000000000000000                              000                           
0330069300011T 06379580130007188        0000000757845200000000007578421012020000000000043269341622400000000000000000000000000001000013770042794EDUARDO VIDAL GOMES MACHADO             01300071880000000000001700400000000                      
0330069300012U 060000000000000000000000000000000000000000000000000000000000000000000000432690000000000432690000000000000000000000000000000201202003012020000000000000000000000000000                              000                           
0330069300013T 09379580130007188        0000000763209200000000007632002122019000000000173668033379580000000000000000000000000001000005357857717MONICA PEREIRA DE AGUIAR DE ANDRADE     01300071880000000000000000900000000                      
0330069300014U 090000000000000000000000000000000000000000000000000000000000000000000000000000000000000000000000000000000000000000000000000201202002012020000000000000000000000000000                              000                           
0330069300015T 09379580130007188        0000000763268200000000007632602122019000000000173668033379580000000000000000000000000001000008506508797FERNANDA DE ALMEIDA SOARES MARCONI      01300071880000000000000000900000000                      
0330069300016U 090000000000000000000000000000000000000000000000000000000000000000000000000000000000000000000000000000000000000000000000000201202002012020000000000000000000000000000                              000                           
0330069300017T 09379580130007188        0000000763276200000000007632702122019000000000144314033379580000000000000000000000000001000005661527705RAQUEL DA SILVA TERRA DA CUNHA          01300071880000000000000000900000000                      
0330069300018U 090000000000000000000000000000000000000000000000000000000000000000000000000000000000000000000000000000000000000000000000000201202002012020000000000000000000000000000                              000                           
0330069300019T 09379580130007188        0000000763284200000000007632802122019000000000144314033379580000000000000000000000000001000008506508797FERNANDA DE ALMEIDA SOARES MARCONI      01300071880000000000000000900000000                      
0330069300020U 090000000000000000000000000000000000000000000000000000000000000000000000000000000000000000000000000000000000000000000000000201202002012020000000000000000000000000000                              000                           
0330069300021T 09379580130007188        0000000763616200000000007636102122019000000000173668033379580000000000000000000000000001000001861063784ANA PAULA CONCEICAO MARQUES FERREIRA    01300071880000000000000000900000000                      
0330069300022U 090000000000000000000000000000000000000000000000000000000000000000000000000000000000000000000000000000000000000000000000000201202002012020000000000000000000000000000                              000                           
0330069300023T 09379580130007188        0000000763772200000000007637702122019000000000144314033379580000000000000000000000000001000010980973783LARISSA GOMES DA SILVA                  01300071880000000000000000900000000                      
0330069300024U 090000000000000000000000000000000000000000000000000000000000000000000000000000000000000000000000000000000000000000000000000201202002012020000000000000000000000000000                              000                           
0330069300025T 09379580130007188        0000000766399200000000007663902012020000000000086012033379580000000000000000000000000001000008642121785ANA LETICIA COUTO ARAUJO                01300071880000000000000001000000000                      
0330069300026U 090000000000000000000000000000000000000000000000000000000000000000000000000000000000000000000000000000000000000000000000000201202002012020000000000000000000000000000                              000                           
0330069300027T 06379580130007188        0000000766674200000000007666702012020000000000193528237607400000000000000000000000000001000009285432778DANIELA GOMES DE SOUZA                  01300071880000000000001700400000000                      
0330069300028U 060000000000000000000000000000000000000000000000000000000000000000000001935280000000001935280000000000000000000000000000000201202003012020000000000000000000000000000                              000                           
0330069300029T 06379580130007188        0000000767042200000000007670402012020000000000290406341614000000000000000000000000000001000007892890750VIVIANA BESSA FERRAZ CRUZ               01300071880000000000001700400000000                      
0330069300030U 060000000000000000000000000000000000000000000000000000000000000000000002904060000000002904060000000000000000000000000000000201202003012020000000000000000000000000000                              000                           
0330069300031T 06379580130007188        0000000767085200000000007670802012020000000000233177001801600000000000000000000000000001000011125351799FELIPE RODRIGUES CORREA                 01300071880000000000001700400000000                      
0330069300032U 060000000000000000000000000000000000000000000000000000000000000000000002331770000000002331770000000000000000000000000000000201202003012020000000000000000000000000000                              000                           
0330069300033T 06379580130007188        0000000767107200000000007671002012020000000000196765104023200000000000000000000000000001000008511415793MARLOS DA COSTA MONCORES                01300071880000000000001700400000000                      
0330069300034U 060000000000000000000000000000000000000000000000000000000000000000000001967650000000001967650000000000000000000000000000000201202003012020000000000000000000000000000                              000                           
0330069300035T 06379580130007188        0000000767140200000000007671402012020000000000233177033382370000000000000000000000000001000005303718719MICHEL ANTONIO COLODETE                 01300071880000000000001700300000000                      
0330069300036U 060000000000000000000000000000000000000000000000000000000000000000000002331770000000002331770000000000000000000000000000000201202003012020000000000000000000000000000                              000                           
0330069300037T 06379580130007188        0000000767166200000000007671602012020000000000233177237204300000000000000000000000000001000009920319740PATRICIA SILVA DE PAULA NOGUEIRA        01300071880000000000001700400000000                      
0330069300038U 060000000000000000000000000000000000000000000000000000000000000000000002331770000000002331770000000000000000000000000000000201202003012020000000000000000000000000000                              000                           
0330069300039T 06379580130007188        0000000767174200000000007671702012020000000000149247341781800000000000000000000000000001000007632341765CRISTIANE MARIA DA COSTA MORGADO        01300071880000000000001700400000000                      
0330069300040U 060000000000000000000000000000000000000000000000000000000000000000000001492470000000001492470000000000000000000000000000000201202003012020000000000000000000000000000                              000                           
0330069300041T 06379580130007188        0000000767182200000000007671802012020000000000310923033300310000000000000000000000000001000005355925740MARCELO DA CRUZ BRITTO                  01300071880000000000001700300000000                      
0330069300042U 060000000000000000000000000000000000000000079960000000000000000000000003029270000000003029270000000000000000000000000000000201202003012020000000000000000000000000000                              000                           
0330069300043T 06379580130007188        0000000767190200000000007671902012020000000000290406033446100000000000000000000000000001000005630155784ALESSANDRA LEMOS ESTEVES DE MELLO       01300071880000000000001700300000000                      
0330069300044U 060000000000000000000000000000000000000000000000000000000000000000000002904060000000002904060000000000000000000000000000000201202003012020000000000000000000000000000                              000                           
0330069300045T 09379580130007188        0000000767212200000000007672102012020000000000310923033379580000000000000000000000000001000008642121785ANA LETICIA COUTO ARAUJO                01300071880000000000000001000000000                      
0330069300046U 090000000000000000000000000000000000000000000000000000000000000000000000000000000000000000000000000000000000000000000000000201202002012020000000000000000000000000000                              000                           
0330069300047T 06379580130007188        0000000767220200000000007672202012020000000000179359001740400000000000000000000000000001000001858767733JULIANA CHAVES FIGUEIREDO DE ASSIS      01300071880000000000001700400000000                      
0330069300048U 060000000000000000000000000000000000000000000000000000000000000000000001793590000000001793590000000000000000000000000000000201202003012020000000000000000000000000000                              000                           
0330069300049T 06379580130007188        0000000767255200000000007672502012020000000000233177033379580000000000000000000000000001000007276803740LILIAN DE MELO GIL                      01300071880000000000001700300000000                      
0330069300050U 060000000000000000000000000000000000000000000000000000000000000000000002331770000000002331770000000000000000000000000000000201202003012020000000000000000000000000000                              000                           
0330069300051T 06379580130007188        0000000767280200000000007672802012020000000000233177033300310000000000000000000000000001000000256666733RICARDO SOLON RIBEIRO                   01300071880000000000001700300000000                      
0330069300052U 060000000000000000000000000000000000000000000000000000000000000000000002331770000000002331770000000000000000000000000000000201202003012020000000000000000000000000000                              000                           
0330069300053T 06379580130007188        0000000767301200000000007673002012020000000000159918001422000000000000000000000000000001000007964169742LUCYENNE DA SILVA BARBOSA               01300071880000000000001700400000000                      
0330069300054U 060000000000000000000000000000000000000000079960000000000000000000000001519220000000001519220000000000000000000000000000000201202003012020000000000000000000000000000                              000                           
0330069300055T 06379580130007188        0000000767336200000000007673302012020000000000257162237179100000000000000000000000000001000009230922773ROBERTA XAVIER FERREIRA                 01300071880000000000001700400000000                      
0330069300056U 060000000000000000000000000000000000000000000000000000000000000000000002571620000000002571620000000000000000000000000000000201202003012020000000000000000000000000000                              000                           
0330069300057T 06379580130007188        0000000767344200000000007673402012020000000000277679341781800000000000000000000000000001000005289712712FABIO CARNEIRO DA CUNHA                 01300071880000000000001700400000000                      
0330069300058U 060000000000000000000000000000000000000000129810000000000000000000000002646980000000002646980000000000000000000000000000000201202003012020000000000000000000000000000                              000                           
0330069300059T 06379580130007188        0000000767360200000000007673602012020000000000159918001447700000000000000000000000000001000007614401786ANDREIA PRESTES MASSENA                 01300071880000000000001700400000000                      
0330069300060U 060000000000000000000000000000000000000000079960000000000000000000000001519220000000001519220000000000000000000000000000000201202003012020000000000000000000000000000                              000                           
0330069300061T 06379580130007188        0000000767379200000000007673702012020000000000257162001448000000000000000000000000000001000008870066711RADHA LILIANE PINTO GONCALVES           01300071880000000000001700400000000                      
0330069300062U 060000000000000000000000000000000000000000064900000000000000000000000002506720000000002506720000000000000000000000000000000201202003012020000000000000000000000000000                              000                           
0330069300063T 06379580130007188        0000000767425200000000007674202012020000000000233177260000100000000000000000000000000001000009916394725RODRIGO DA SILVA ADUR                   01300071880000000000001700400000000                      
0330069300064U 060000000000000000000000000000000000000000000000000000000000000000000002331770000000002331770000000000000000000000000000000201202003012020000000000000000000000000000                              000                           
0330069300065T 06379580130007188        0000000767441200000000007674402012020000000000179359341043800000000000000000000000000001000007667365717ELAINE DA SILVA VANTINE                 01300071880000000000001700400000000                      
0330069300066U 060000000000000000000000000000000000000000000000000000000000000000000001793590000000001793590000000000000000000000000000000201202003012020000000000000000000000000000                              000                           
0330069300067T 06379580130007188        0000000767476200000000007674702012020000000000310923033300310000000000000000000000000001000008233533700CINTIA SANTOS NERY DOS ANJOS            01300071880000000000001700300000000                      
0330069300068U 060000000000000000000000000000000000000000079960000000000000000000000003029270000000003029270000000000000000000000000000000201202003012020000000000000000000000000000                              000                           
0330069300069T 09379580130007188        0000000767484200000000007674802012020000000000290406033379580000000000000000000000000001000007445249702ALINE TAVARES VIEIRA                    01300071880000000000000001000000000                      
0330069300070U 090000000000000000000000000000000000000000000000000000000000000000000000000000000000000000000000000000000000000000000000000201202002012020000000000000000000000000000                              000                           
0330069300071T 06379580130007188        0000000767492200000000007674902012020000000000179359237607400000000000000000000000000001000003431094767KATIA OLIVEIRA DE ARAUJO                01300071880000000000001700400000000                      
0330069300072U 060000000000000000000000000000000000000000079960000000000000000000000001713630000000001713630000000000000000000000000000000201202003012020000000000000000000000000000                              000                           
0330069300073T 06379580130007188        0000000767522200000000007675202012020000000000179359237607400000000000000000000000000001000003431094767KATIA OLIVEIRA DE ARAUJO                01300071880000000000001700400000000                      
0330069300074U 060000000000000000000000000000000000000000079960000000000000000000000001713630000000001713630000000000000000000000000000000201202003012020000000000000000000000000000                              000                           
0330069300075T 06379580130007188        0000000767530200000000007675302012020000000000290406001575700000000000000000000000000001000008903290798LIANA LOMBA LOPES LEMOS LYRA            01300071880000000000001700400000000                      
0330069300076U 060000000000000000000000000000000000000000319840000000000000000000000002584220000000002584220000000000000000000000000000000201202003012020000000000000000000000000000                              000                           
0330069300077T 06379580130007188        0000000767549200000000007675402012020000000000179359341647600000000000000000000000000001000010672736705CINTIA MARIA LANZARINI GOUY             01300071880000000000001700400000000                      
0330069300078U 060000000000000000000000000000000000000000000000000000000000000000000001793590000000001793590000000000000000000000000000000201202003012020000000000000000000000000000                              000                           
0330069300079T 06379580130007188        0000000767581200000000007675802012020000000000179359104054200000000000000000000000000001000003533072703FERNANDO DA SILVA BARRETO               01300071880000000000001700400000000                      
0330069300080U 060000000000000000000000000000000000000000000000000000000000000000000001793590000000001793590000000000000000000000000000000201202003012020000000000000000000000000000                              000                           
0330069300081T 06379580130007188        0000000767590200000000007675902012020000000000244345341781800000000000000000000000000001000008380143728EVANDRO MACHADO GALVAO                  01300071880000000000001700400000000                      
0330069300082U 060000000000000000000000000000000000000000000000000000000000000000000002443450000000002443450000000000000000000000000000000201202003012020000000000000000000000000000                              000                           
0330069300083T 06379580130007188        0000000767620200000000007676202012020000000000179359001422000000000000000000000000000001000007964169742LUCYENNE DA SILVA BARBOSA               01300071880000000000001700400000000                      
0330069300084U 060000000000000000000000000000000000000000000000000000000000000000000001793590000000001793590000000000000000000000000000000201202003012020000000000000000000000000000                              000                           
0330069300085T 06379580130007188        0000000767654200000000007676502012020000000000290406033428620000000000000000000000000001000010249429705PRISCILLA CELESTE QUERINO CORREA        01300071880000000000001700300000000                      
0330069300086U 060000000000000000000000000000000000000000000000000000000000000000000002904060000000002904060000000000000000000000000000000201202003012020000000000000000000000000000                              000                           
0330069300087T 06379580130007188        0000000767662200000000007676602012020000000000179359341929200000000000000000000000000001000007120939742LUIZ EDUARDO CAPUANO                    01300071880000000000001700400000000                      
0330069300088U 060000000000000000000000000000000000000000000000000000000000000000000001793590000000001793590000000000000000000000000000000201202003012020000000000000000000000000000                              000                           
0330069300089T 06379580130007188        0000000767670200000000007676702012020000000000290406001575700000000000000000000000000001000008903290798LIANA LOMBA LOPES LEMOS LYRA            01300071880000000000001700400000000                      
0330069300090U 060000000000000000000000000000000000000000319840000000000000000000000002584220000000002584220000000000000000000000000000000201202003012020000000000000000000000000000                              000                           
0330069300091T 06379580130007188        0000000767689200000000007676802012020000000000244345001498200000000000000000000000000001000002390216730MARTA CRISTINA SANTIAGO  FELIZARDO      01300071880000000000001700400000000                      
0330069300092U 060000000000000000000000000000000000000000000000000000000000000000000002443450000000002443450000000000000000000000000000000201202003012020000000000000000000000000000                              000                           
0330069300093T 06379580130007188        0000000767700200000000007677002012020000000000179359104022100000000000000000000000000001000007998508701LUCIANA CARVALHO DE SOUZA               01300071880000000000001700400000000                      
0330069300094U 060000000000000000000000000000000000000000079960000000000000000000000001713630000000001713630000000000000000000000000000000201202003012020000000000000000000000000000                              000                           
0330069300095T 06379580130007188        0000000767719200000000007677110012020000000000179359341124600000000000000000000000000001000007892903755VIVIANE MOTTA PEREIRA ALVES             01300071880000000000001700400000000                      
0330069300096U 060000000000000000000000000000000000000000000000000000000000000000000001793590000000001793590000000000000000000000000000000201202003012020000000000000000000000000000                              000                           
0330069300097T 06379580130007188        0000000767727200000000007677202012020000000000290406001156900000000000000000000000000001000094624267753FATIMA DA SILVA GOMES                   01300071880000000000001700400000000                      
0330069300098U 060000000000000000000000000000000000000000000000000000000000000000000002904060000000002904060000000000000000000000000000000201202003012020000000000000000000000000000                              000                           
0330069300099T 06379580130007188        0000000767760200000000007677602012020000000000179359033345920000000000000000000000000001000003748536739ANA LUCIA LOUREIRO FERREIRA             01300071880000000000001700300000000                      
0330069300100U 060000000000000000000000000000000000000000000000000000000000000000000001793590000000001793590000000000000000000000000000000201202003012020000000000000000000000000000                              000                           
0330069300101T 06379580130007188        0000000767794200000000007677902012020000000000179359001447600000000000000000000000000001000007692678740ANDREZA DOS SANTOS RIBEIRO BESSA        01300071880000000000001700400000000                      
0330069300102U 060000000000000000000000000000000000000000079960000000000000000000000001713630000000001713630000000000000000000000000000000201202003012020000000000000000000000000000                              000                           
0330069300103T 06379580130007188        0000000767808200000000007678002012020000000000233177033345170000000000000000000000000001000003604065640RODRIGO ROCHA DE FREITAS                01300071880000000000001700300000000                      
0330069300104U 060000000000000000000000000000000000000000000000000000000000000000000002331770000000002331770000000000000000000000000000000201202003012020000000000000000000000000000                              000                           
0330069300105T 06379580130007188        0000000767824200000000007678202012020000000000233177001448000000000000000000000000000001000008870066711RADHA LILIANE PINTO GONCALVES           01300071880000000000001700400000000                      
0330069300106U 060000000000000000000000000000000000000000064900000000000000000000000002266870000000002266870000000000000000000000000000000201202003012020000000000000000000000000000                              000                           
0330069300107T 06379580130007188        0000000767883200000000007678802012020000000000257162033353430000000000000000000000000001000010518645770THIAGO DE ABREU SIQUEIRA PINTO          01300071880000000000001700300000000                      
0330069300108U 060000000000000000000000000000000000000000000000000000000000000000000002571620000000002571620000000000000000000000000000000201202003012020000000000000000000000000000                              000                           
0330069300109T 06379580130007188        0000000767891200000000007678902012020000000000257162341566200000000000000000000000000001000011798709724NATASHA KELBER SITTON                   01300071880000000000001700400000000                      
0330069300110U 060000000000000000000000000000000000000000389420000000000000000000000002182200000000002182200000000000000000000000000000000201202003012020000000000000000000000000000                              000                           
0330069300111T 06379580130007188        0000000767905200000000007679002012020000000000218772341600200000000000000000000000000001000009567314730MARCELI VILLAS BOAS CHAVES              01300071880000000000001700400000000                      
0330069300112U 060000000000000000000000000000000000000000064900000000000000000000000002122820000000002122820000000000000000000000000000000201202003012020000000000000000000000000000                              000                           
0330069300113T 06379580130007188        0000000767913200000000007679102012020000000000257162341590000000000000000000000000000001000007445763775ANA LUZIA NICACIO PIRAS                 01300071880000000000001700400000000                      
0330069300114U 060000000000000000000000000000000000000000000000000000000000000000000002571620000000002571620000000000000000000000000000000201202003012020000000000000000000000000000                              000                           
0330069300115T 06379580130007188        0000000767921200000000007679202012020000000000257162237201400000000000000000000000000001000009133345708CARMEN LUCIA MARTINS CARDOSO            01300071880000000000001700400000000                      
0330069300116U 060000000000000000000000000000000000000000064900000000000000000000000002506720000000002506720000000000000000000000000000000201202003012020000000000000000000000000000                              000                           
0330069300117T 06379580130007188        0000000767956200000000007679502012020000000000277679033362420000000000000000000000000001000007108255790LICIA LESSA DE VASCONCELOS              01300071880000000000001700300000000                      
0330069300118U 060000000000000000000000000000000000000000000000000000000000000000000002776790000000002776790000000000000000000000000000000201202003012020000000000000000000000000000                              000                           
0330069300119T 06379580130007188        0000000767980200000000007679802012020000000000290406237201400000000000000000000000000001000009133345708CARMEN LUCIA MARTINS CARDOSO            01300071880000000000001700400000000                      
0330069300120U 060000000000000000000000000000000000000000079960000000000000000000000002824100000000002824100000000000000000000000000000000201202003012020000000000000000000000000000                              000                           
0330069300121T 06379580130007188        0000000767999200000000007679902012020000000000277679341383000000000000000000000000000001000012431350770KAIO SANTOS DE LIMA                     01300071880000000000001700400000000                      
0330069300122U 060000000000000000000000000000000000000000000000000000000000000000000002776790000000002776790000000000000000000000000000000201202003012020000000000000000000000000000                              000                           
0330069300123T 06379580130007188        0000000768030200000000007680302012020000000000257162001244800000000000000000000000000001000010655937757GABRIEL SOUZA HERBURGO                  01300071880000000000001700400000000                      
0330069300124U 060000000000000000000000000000000000000000000000000000000000000000000002571620000000002571620000000000000000000000000000000201202003012020000000000000000000000000000                              000                           
0330069300125T 06379580130007188        0000000768049200000000007680402012020000000000149247001319900000000000000000000000000001000008676081700ROGERIO MENEZES DE ALMEIDA              01300071880000000000001700400000000                      
0330069300126U 060000000000000000000000000000000000000000000000000000000000000000000001492470000000001492470000000000000000000000000000000201202003012020000000000000000000000000000                              000                           
0330069300127T 06379580130007188        0000000768057200000000007680502012020000000000257162001422000000000000000000000000000001000005687964703AMANDA CRUZ MENDES                      01300071880000000000001700400000000                      
0330069300128U 060000000000000000000000000000000000000000064900000000000000000000000002506720000000002506720000000000000000000000000000000201202003012020000000000000000000000000000                              000                           
0330069300129T 06379580130007188        0000000768065200000000007680602012020000000000233177341601200000000000000000000000000001000005646444713BEATRIZ NETO LEMOS DE CAMPOS RASTEIRO VA01300071880000000000001700400000000                      
0330069300130U 060000000000000000000000000000000000000000194710000000000000000000000002137060000000002137060000000000000000000000000000000201202003012020000000000000000000000000000                              000                           
0330069300131T 06379580130007188        0000000768090200000000007680902012020000000000233177341702500000000000000000000000000001000000073844594DIOGENES BISPO FONTES                   01300071880000000000001700400000000                      
0330069300132U 060000000000000000000000000000000000000000324520000000000000000000000002007250000000002007250000000000000000000000000000000201202003012020000000000000000000000000000                              000                           
0330069300133T 06379580130007188        0000000768103200000000007681002012020000000000179359237343400000000000000000000000000001000007594254775RUI ALEXANDRE CAMURI RIBEIRO PENNA      01300071880000000000001700400000000                      
0330069300134U 060000000000000000000000000000000000000000000000000000000000000000000001793590000000001793590000000000000000000000000000000201202003012020000000000000000000000000000                              000                           
0330069300135T 06379580130007188        0000000768111200000000007681102012020000000000244345033153260000000000000000000000000001000004786508764BRUNO RAINHO MENDONCA                   01300071880000000000001700300000000                      
0330069300136U 060000000000000000000000000000000000000000000000000000000000000000000002443450000000002443450000000000000000000000000000000201202003012020000000000000000000000000000                              000                           
0330069300137T 06379580130007188        0000000768120200000000007681202012020000000000290406341601200000000000000000000000000001000005646444713BEATRIZ NETO LEMOS DE CAMPOS RASTEIRO VA01300071880000000000001700400000000                      
0330069300138U 060000000000000000000000000000000000000000239880000000000000000000000002664180000000002664180000000000000000000000000000000201202003012020000000000000000000000000000                              000                           
0330069300139T 06379580130007188        0000000768138200000000007681302012020000000000244345341781800000000000000000000000000001000001817071793CELSO ALEX PEREIRA DA SILVA             01300071880000000000001700400000000                      
0330069300140U 060000000000000000000000000000000000000000000000000000000000000000000002443450000000002443450000000000000000000000000000000201202003012020000000000000000000000000000                              000                           
0330069300141T 06379580130007188        0000000768146200000000007681402012020000000000179359001000100000000000000000000000000001000008044573798VIVIANE VIDAL DA SILVA RIOS             01300071880000000000001700400000000                      
0330069300142U 060000000000000000000000000000000000000000000000000000000000000000000001793590000000001793590000000000000000000000000000000201202003012020000000000000000000000000000                              000                           
0330069300143T 06379580130007188        0000000768154200000000007681502012020000000000290406341711500000000000000000000000000001000005292740780ISABELE FERREIRA DE BARROS DE SOUZA     01300071880000000000001700400000000                      
0330069300144U 060000000000000000000000000000000000000000000000000000000000000000000002904060000000002904060000000000000000000000000000000201202003012020000000000000000000000000000                              000                           
0330069300145T 06379580130007188        0000000768170200000000007681702012020000000000290406341030900000000000000000000000000001000002545333700ANDRE LUIZ RODRIGUES DA SILVA           01300071880000000000001700400000000                      
0330069300146U 060000000000000000000000000000000000000000000000000000000000000000000002904060000000002904060000000000000000000000000000000201202003012020000000000000000000000000000                              000                           
0330069300147T 06379580130007188        0000000768219200000000007682102012020000000000179359341600200000000000000000000000000001000009567314730MARCELI VILLAS BOAS CHAVES              01300071880000000000001700400000000                      
0330069300148U 060000000000000000000000000000000000000000079960000000000000000000000001713630000000001713630000000000000000000000000000000201202003012020000000000000000000000000000                              000                           
0330069300149T 06379580130007188        0000000768227200000000007682202012020000000000179359001422000000000000000000000000000001000005687964703AMANDA CRUZ MENDES                      01300071880000000000001700400000000                      
0330069300150U 060000000000000000000000000000000000000000079960000000000000000000000001713630000000001713630000000000000000000000000000000201202003012020000000000000000000000000000                              000                           
0330069300151T 06379580130007188        0000000768235200000000007682302012020000000000179359104314600000000000000000000000000001000008414097731GISELE ABREU LIRA CORREA DOS SANTOS     01300071880000000000001700400000000                      
0330069300152U 060000000000000000000000000000000000000000000000000000000000000000000001793590000000001793590000000000000000000000000000000201202003012020000000000000000000000000000                              000                           
0330069300153T 06379580130007188        0000000768243200000000007682402012020000000000179359341781800000000000000000000000000001000008395265719ANDREA DAVEIRO ESPINHEIRA DANTAS        01300071880000000000001700400000000                      
0330069300154U 060000000000000000000000000000000000000000000000000000000000000000000001793590000000001793590000000000000000000000000000000201202003012020000000000000000000000000000                              000                           
0330069300155T 06379580130007188        0000000768294200000000007682902012020000000000179359237277800000000000000000000000000001000002550459725THAIS FERNANDES SANTOS NAVE             01300071880000000000001700400000000                      
0330069300156U 060000000000000000000000000000000000000000000000000000000000000000000001793590000000001793590000000000000000000000000000000201202003012020000000000000000000000000000                              000                           
0330069300157T 06379580130007188        0000000768308200000000007683002012020000000000255184341624500000000000000000000000000001000009305077706LUCIANA DE ALBUQUERQUE DALTIO VIALLI    01300071880000000000001700400000000                      
0330069300158U 060000000000000000000000000000000000000000000000000000000000000000000002551840000000002551840000000000000000000000000000000201202003012020000000000000000000000000000                              000                           
0330069300159T 06379580130007188        0000000768316200000000007683102012020000000000233177237319900000000000000000000000000001000008045716789ALINE MENEZES CORREA PACHECO            01300071880000000000001700400000000                      
0330069300160U 060000000000000000000000000000000000000000000000000000000000000000000002331770000000002331770000000000000000000000000000000201202003012020000000000000000000000000000                              000                           
0330069300161T 06379580130007188        0000000768324200000000007683202012020000000000218772001453500000000000000000000000000001000005062162688TATIANA ALVES DE SOUZA                  01300071880000000000001700400000000                      
0330069300162U 060000000000000000000000000000000000000000000000000000000000000000000002187720000000002187720000000000000000000000000000000201202003012020000000000000000000000000000                              000                           
0330069300163T 06379580130007188        0000000768332200000000007683302012020000000000257162237276600000000000000000000000000001000007692678740ANDREZA DOS SANTOS RIBEIRO BESSA        01300071880000000000001700400000000                      
0330069300164U 060000000000000000000000000000000000000000064900000000000000000000000002506720000000002506720000000000000000000000000000000201202003012020000000000000000000000000000                              000                           
0330069300165T 06379580130007188        0000000768359200000000007683502012020000000000218772341927200000000000000000000000000001000005382427798DANIEL MORAES BARROS                    01300071880000000000001700400000000                      
0330069300166U 060000000000000000000000000000000000000000000000000000000000000000000002187720000000002187720000000000000000000000000000000201202003012020000000000000000000000000000                              000                           
0330069300167T 06379580130007188        0000000768367200000000007683602012020000000000218772237179000000000000000000000000000001000011471397769LETICIA CASTILHO COIMBRA DA COSTA       01300071880000000000001700400000000                      
0330069300168U 060000000000000000000000000000000000000000000000000000000000000000000002187720000000002187720000000000000000000000000000000201202003012020000000000000000000000000000                              000                           
0330069300169T 06379580130007188        0000000768375200000000007683702012020000000000257162341076900000000000000000000000000001000008230212708MARIA FERNANDA MAGRO DIONYSIO IORIO     01300071880000000000001700400000000                      
0330069300170U 060000000000000000000000000000000000000000129810000000000000000000000002441810000000002441810000000000000000000000000000000201202003012020000000000000000000000000000                              000                           
0330069300171T 06379580130007188        0000000768456200000000007684502012020000000000257162001740800000000000000000000000000001000011878263757PEDRO PAULO DE FIGUEIREDO SILVA         01300071880000000000001700400000000                      
0330069300172U 060000000000000000000000000000000000000000259610000000000000000000000002312010000000002312010000000000000000000000000000000201202003012020000000000000000000000000000                              000                           
0330069300173T 06379580130007188        0000000768472200000000007684702012020000000000290406341704100000000000000000000000000001000008622168778MILENA MACAO TEIXEIRA                   01300071880000000000001700400000000                      
0330069300174U 060000000000000000000000000000000000000000000000000000000000000000000002904060000000002904060000000000000000000000000000000201202003012020000000000000000000000000000                              000                           
0330069300175T 06379580130007188        0000000768480200000000007684802012020000000000290406341374800000000000000000000000000001000004748176792ANDRE VINICIUS DE ANDRADE ARAUJO        01300071880000000000001700400000000                      
0330069300176U 060000000000000000000000000000000000000000159920000000000000000000000002744140000000002744140000000000000000000000000000000201202003012020000000000000000000000000000                              000                           
0330069300177T 09379580130007188        0000000768537200000000007685302012020000000000290406033379580000000000000000000000000001000007687226755MAIRA MASSENA PESSOA DA SILVA           01300071880000000000000001000000000                      
0330069300178U 090000000000000000000000000000000000000000000000000000000000000000000000000000000000000000000000000000000000000000000000000201202002012020000000000000000000000000000                              000                           
0330069300179T 06379580130007188        0000000768545200000000007685402012020000000000179359033080100000000000000000000000000001000009940063733FLAVIA DE PAIVA GUIMARAES ALVARENGA     01300071880000000000001700300000000                      
0330069300180U 060000000000000000000000000000000000000000079960000000000000000000000001713630000000001713630000000000000000000000000000000201202003012020000000000000000000000000000                              000                           
0330069300181T 06379580130007188        0000000768588200000000007685802012020000000000196765237300200000000000000000000000000001000003389368744MARCELO RODRIGUES DE ALMEIDA            01300071880000000000001700400000000                      
0330069300182U 060000000000000000000000000000000000000000000000000000000000000000000001967650000000001967650000000000000000000000000000000201202003012020000000000000000000000000000                              000                           
0330069300183T 06379580130007188        0000000768626200000000007686202012020000000000179359237097800000000000000000000000000001000011228767777MARCO ANTONIO SALIN MACEDO FILHO        01300071880000000000001700400000000                      
0330069300184U 060000000000000000000000000000000000000000079960000000000000000000000001713630000000001713630000000000000000000000000000000201202003012020000000000000000000000000000                              000                           
0330069300185T 06379580130007188        0000000768693200000000007686902012020000000000244345001365200000000000000000000000000001000008722279792AMANDA BARCELLOS TARANTO SILVA          01300071880000000000001700400000000                      
0330069300186U 060000000000000000000000000000000000000000000000000000000000000000000002443450000000002443450000000000000000000000000000000201202003012020000000000000000000000000000                              000                           
0330069300187T 06379580130007188        0000000768774200000000007687702012020000000000290406001489200000000000000000000000000001000009825269707RAFAEL DUARTE TOUZA                     01300071880000000000001700400000000                      
0330069300188U 060000000000000000000000000000000000000000079960000000000000000000000002824100000000002824100000000000000000000000000000000201202003012020000000000000000000000000000                              000                           
0330069300189T 06379580130007188        0000000768782200000000007687802012020000000000179359237097800000000000000000000000000001000011228767777MARCO ANTONIO SALIN MACEDO FILHO        01300071880000000000001700400000000                      
0330069300190U 060000000000000000000000000000000000000000079960000000000000000000000001713630000000001713630000000000000000000000000000000201202003012020000000000000000000000000000                              000                           
0330069300191T 06379580130007188        0000000768820200000000007688202012020000000000149247001009100000000000000000000000000001000009832208750RENATO FAGUNDES VALADAO RIDOLFI         01300071880000000000001700400000000                      
0330069300192U 060000000000000000000000000000000000000000519220000000000000000000000000973250000000000973250000000000000000000000000000000201202003012020000000000000000000000000000                              000                           
0330069300193T 09379580130007188        0000000768820200000000007688202012020000000000149247033379580000000000000000000000000001000009832208750RENATO FAGUNDES VALADAO RIDOLFI         01300071880000000000000001000000000                      
0330069300194U 090000000000000000000000000000000000000000000000000000000000000000000000000000000000000000000000000000000000000000000000000201202002012020000000000000000000000000000                              000                           
0330069300195T 06379580130007188        0000000768855200000000007688502012020000000000233177033389110000000000000000000000000001000029471697867MARINA FULAS CARVALHAL                  01300071880000000000001700300000000                      
0330069300196U 060000000000000000000000000000000000000000000000000000000000000000000002331770000000002331770000000000000000000000000000000201202003012020000000000000000000000000000                              000                           
0330069300197T 06379580130007188        0000000768898200000000007688902012020000000000159918033352200000000000000000000000000001000004277714714DENISE HOLLANDA COSTA LIMA              01300071880000000000001700300000000                      
0330069300198U 060000000000000000000000000000000000000000079960000000000000000000000001519220000000001519220000000000000000000000000000000201202003012020000000000000000000000000000                              000                           
0330069300199T 06379580130007188        0000000768901200000000007689002012020000000000149247341622400000000000000000000000000001000013770042794EDUARDO VIDAL GOMES MACHADO             01300071880000000000001700400000000                      
0330069300200U 060000000000000000000000000000000000000000000000000000000000000000000001492470000000001492470000000000000000000000000000000201202003012020000000000000000000000000000                              000                           
0330069300201T 06379580130007188        0000000768936200000000007689302012020000000000196765033386010000000000000000000000000001000010930807790LIVIA CARVALHO LOPES                    01300071880000000000001700300000000                      
0330069300202U 060000000000000000000000000000000000000000259610000000000000000000000001708040000000001708040000000000000000000000000000000201202003012020000000000000000000000000000                              000                           
0330069300203T 06379580130007188        0000000768944200000000007689402012020000000000290406341566200000000000000000000000000001000008077491766RODRIGO SALES FELICISSIMO               01300071880000000000001700400000000                      
0330069300204U 060000000000000000000000000000000000000000079960000000000000000000000002824100000000002824100000000000000000000000000000000201202003012020000000000000000000000000000                              000                           
0330069300205T 06379580130007188        0000000768987200000000007689802012020000000000179359237002600000000000000000000000000001000008438878776VANESSA RODRIGUES MACHADO               01300071880000000000001700400000000                      
0330069300206U 060000000000000000000000000000000000000000159920000000000000000000000001633670000000001633670000000000000000000000000000000201202003012020000000000000000000000000000                              000                           
0330069300207T 06379580130007188        0000000769002200000000007690002012020000000000179359341781300000000000000000000000000001000007841152736FABIO LUIS GOMES PEREIRA                01300071880000000000001700400000000                      
0330069300208U 060000000000000000000000000000000000000000000000000000000000000000000001793590000000001793590000000000000000000000000000000201202003012020000000000000000000000000000                              000                           
0330069300209T 06379580130007188        0000000769010200000000007690102012020000000000244345341965300000000000000000000000000001000003882149701DENISE DO CARMO MARQUES                 01300071880000000000001700400000000                      
0330069300210U 060000000000000000000000000000000000000000000000000000000000000000000002443450000000002443450000000000000000000000000000000201202003012020000000000000000000000000000                              000                           
0330069300211T 06379580130007188        0000000769088200000000007690802012020000000000233177001431500000000000000000000000000001000002399735773RENATA LOURENCO MENDES KESLER           01300071880000000000001700400000000                      
0330069300212U 060000000000000000000000000000000000000000000000000000000000000000000002331770000000002331770000000000000000000000000000000201202003012020000000000000000000000000000                              000                           
0330069300213T 06379580130007188        0000000769096200000000007690902012020000000000159918104451500000000000000000000000000001000005703993784ARTUR BATISTA VILAR                     01300071880000000000001700400000000                      
0330069300214U 060000000000000000000000000000000000000000000000000000000000000000000001599180000000001599180000000000000000000000000000000201202003012020000000000000000000000000000                              000                           
0330069300215T 06379580130007188        0000000770744200000000007707402012020000000000217282001441600000000000000000000000000001000005261757703INGRID TEIXEIRA                         01300071880000000000001700400000000                      
0330069300216U 060000000000000000000000000000000000000000000000000000000000000000000002172820000000002172820000000000000000000000000000000201202003012020000000000000000000000000000                              000                           
03300695         0002160001290000000001999107500000000000000000000000000000000000000000000000000000000000000000000000000690                                                                                                                     
03300699         000001000220                                                                                                                                                                                                                   
