03300000        2029974763000115379580130007188     008351635           ALDEIA ESCOLA EXPERIMENTAL LTDBANCO SANTANDER (BRASIL) S/A            202012020      000796040                                                                          
03302171T01  040 2029974763000115008351635           379580130007188     ALDEIA ESCOLA EXPERIMENTAL LTD                                                                                0000079602012020                                         
0330217300001T 02379580130007188        0000000770779200000000007707710012020000000000053758033379580000000000000000000000000001000011205284702EVANDRO DA MATTA VICENTE                01300071880000000000000000000000000                      
0330217300002U 020000000000000000000000000000000000000000000000000000000000000000000000000000000000000000000000000000000000000000000000000201202002012020000000000000000000000000000                              000                           
0330217300003T 02379580130007188        0000000770787200000000007707810022020000000000053758033379580000000000000000000000000001000011205284702EVANDRO DA MATTA VICENTE                01300071880000000000000000000000000                      
0330217300004U 020000000000000000000000000000000000000000000000000000000000000000000000000000000000000000000000000000000000000000000000000201202002012020000000000000000000000000000                              000                           
0330217300005T 02379580130007188        0000000770876200000000007708706012020000000000179359033379580000000000000000000000000001000007445249702ALINE TAVARES VIEIRA                    01300071880000000000000000000000000                      
0330217300006U 020000000000000000000000000000000000000000000000000000000000000000000000000000000000000000000000000000000000000000000000000201202002012020000000000000000000000000000                              000                           
0330217300007T 02379580130007188        0000000770884200000000007708806012020000000000097325033379580000000000000000000000000001000009832208750RENATO FAGUNDES VALADAO RIDOLFI         01300071880000000000000000000000000                      
0330217300008U 020000000000000000000000000000000000000000000000000000000000000000000000000000000000000000000000000000000000000000000000000201202002012020000000000000000000000000000                              000                           
0330217300009T 02379580130007188        0000000770892200000000007708906012020000000000098568033379580000000000000000000000000001000002200358733SIMONE SIQUEIRA VELOZO                  01300071880000000000000000000000000                      
0330217300010U 020000000000000000000000000000000000000000000000000000000000000000000000000000000000000000000000000000000000000000000000000201202002012020000000000000000000000000000                              000                           
03302175         0000100002310000000004216632700000000000000000000000000000000000000000000000000000000000000000000000000689                                                                                                                     
03302179         000001000014                                                                                                                                                                                                                   
